:1000000045C0000060C000005EC000005CC0000091
:100010005AC0000058C0000056C0000054C0000084
:1000200052C0000050C000004EC000004CC0000094
:100030004AC0000002C4000046C0000044C00000E6
:1000400042C0000040C000003EC000003CC00000B4
:100050003AC0000038C0000036C0000034C00000C4
:1000600032C0000030C000002EC000002CC00000D4
:100070002AC0000028C0000026C0000024C00000E4
:1000800022C0000020C000001EC0000011241FBEBE
:10009000CFEFD0E4DEBFCDBF11E0A0E0B1E0E8E2F9
:1000A000FFE000E00BBF02C007900D92A231B10744
:1000B000D9F727E0A2E1B1E001C01D92AC34B2074C
:1000C000E1F72AD22FC79CCFCF93DF93EC0112D553
:1000D00040911201509113019E01240F351F2C3DB8
:1000E00085E0380758F44217530758F4EA01CC5E0C
:1000F000DE4F309313012093120105C0C0E0D0E021
:1001000002C0C0E0D0E0BDD58C2F9D2FDF91CF91F4
:1001100008950895FC010396928381832FEF3FEFAA
:100120003483238396838583908787831082089501
:10013000FC01118610860895CF93DF93FC01DB014B
:1001400021813281E9018A819B8113969C938E9350
:1001500012978181928115969C938E9314978A8130
:100160009B81EC017D836C83E9017B836A837283CD
:1001700061831996FC93EE93189780818F5F80833B
:10018000DF91CF910895CF93DF93EB01488159819F
:100190004F3F2FEF520731F4DC011796ED91FC91A0
:1001A000189717C0FC013396DC0115962D913C91F0
:1001B0001697D9012D913C914217530750F00280B8
:1001C000F381E02DA281B3812D913C914217530719
:1001D000B0F7A281B381BB83AA831596DC93CE933B
:1001E0001497FD83EC83D383C28399878887FC01AE
:1001F00020812F5F2083DF91CF910895FC01A281A0
:10020000B3818481958115969C938E931497A481D4
:10021000B5818281938113969C938E931297A085CA
:10022000B18511968D919C9112978E179F0731F48D
:100230008481958112969C938E93119711861086D6
:100240008C9181508C930895442351F041E050E00B
:100250009A0102C0220F331F6A95E2F7822B08959C
:1002600021E030E0A90102C0440F551F6A95E2F772
:10027000BA0160958623089521E030E0A90102C00B
:10028000440F551F6A95E2F78423089540E064E027
:100290008FEFDADF85B9000083B160E08095ECDF95
:1002A00081116EC083B161E08095E6DF81116AC083
:1002B00083B162E08095E0DF811166C083B163E0C5
:1002C0008095DADF811162C040E065E08FEFBCDF2E
:1002D00085B9000083B160E08095CEDF811158C000
:1002E00083B161E08095C8DF811154C083B162E0C1
:1002F0008095C2DF811150C083B163E08095BCDF7F
:1003000081114CC040E066E08FEF9EDF85B90000B0
:1003100083B160E08095B0DF811142C083B161E0BC
:100320008095AADF81113EC083B162E08095A4DF91
:1003300081113AC083B163E080959EDF811136C0A0
:1003400040E067E08FEF80DF85B9000083B160E0B7
:10035000809592DF81112CC083B161E080958CDFA4
:10036000811128C083B162E0809586DF811124C0AD
:1003700083B163E0809580DF882301F184E40895F0
:1003800081E3089584E3089587E308958AE2089558
:1003900082E3089585E3089588E3089580E308954E
:1003A00083E3089586E3089589E3089583E2089539
:1003B00081E4089582E4089583E4089580E0089537
:1003C000813081F0E1ECF0E0808188618083E2ECB3
:1003D000F0E080818660808383E38093C400109284
:1003E000C5000895E9ECF0E0808188618083EAEC43
:1003F000F0E080818660808383E38093CC0010925C
:10040000CD000895813021F08091C0008072089560
:100410008091C80080720895813021F08091C000E1
:10042000807408958091C80080740895813029F403
:100430008091C800882384F008958091C0008823AB
:10044000ACF4A6ECB0E0E0ECF0E08C918093F00628
:1004500080818823D4F30895AEECB0E0E8ECF0E0BE
:100460008C918093F00680818823D4F308956130C5
:1004700041F0E0ECF0E0908195FFFDCF8093C60065
:100480000895E8ECF0E0908195FFFDCF8093CE00D9
:100490000895EAE7F0E08081806E808308951092ED
:1004A0004B070895F3DE813419F481E088B901C067
:1004B00018B881E0A7DF882319F0E8DE61E0D7DF14
:1004C00081E0AADF882311F081E0B0CF0895E7DF53
:1004D000E9DF84E690E098D4FBCFAF92BF92CF9251
:1004E000DF92EF92FF920F93A12CB12CC12CD12C53
:1004F000E12CF12C082F20E030E045E550E062E0EF
:1005000071E087E692E0D0D10F91FF90EF90DF90FD
:10051000CF90BF90AF9008958FEF87B918B880EF54
:1005200084B98FE085B9B5DF80E04ADF81E048DF3C
:1005300081E0D3DFB6D280E090E0089531E1FC01A4
:100540003083319722E22083FC013297A3E3A0831A
:10055000FC0133976083FC0134977083FC0135976D
:100560001082FC01369760E86083FC0137971082A7
:10057000FC01389762E06083FC01399763E0608397
:10058000FC013A9764E06083FC013B9765E060837F
:10059000FC013C9766E06083FC013D9767E0608367
:1005A000FC013E9768E06083FC013F9769E060834F
:1005B000FC01709760E16083FC0171973083FC015E
:1005C000729732E13083FC01739733E13083FC0191
:1005D000749734E13083FC01759735E13083FC0179
:1005E000769736E13083FC01779737E13083FC0161
:1005F000789738E13083FC01799739E13083FC0149
:100600007A9730E23083FC017B9731E23083FC0142
:100610007C972083FC017D9723E22083FC017E9759
:100620004083FC017F975083FC01B09726E2208332
:10063000FC01B19727E22083FC01B29728E22083D6
:10064000FC01B39729E22083FC01B49720E32083C7
:10065000FC01B59721E320839C0126523109822FAA
:10066000932F0895109289008CE7809388008BE087
:1006700080938100EFE6F0E0808182608083A0912A
:10068000FF06B0910007CD91CDBFDD91DEBFFF9198
:10069000EF91DF91CF91BF91AF919F918F917F911A
:1006A0006F915F914F913F912F911F910F91FF900B
:1006B000EF90DF90CF90BF90AF909F908F907F9002
:1006C0006F905F904F903F902F901F900F900FBEB4
:1006D0000F90089581E008950F920FB6F8940F924D
:1006E0001F9211242F923F924F925F926F927F92AE
:1006F0008F929F92AF92BF92CF92DF92EF92FF9232
:100700000F931F932F933F934F935F936F937F9319
:100710008F939F93AF93BF93CF93DF93EF93FF9309
:10072000A091FF06B09100070DB60D920EB60D9286
:1007300086D3A091FF06B0910007CD91CDBFDD918A
:10074000DEBFFF91EF91DF91CF91BF91AF919F916C
:100750008F917F916F915F914F913F912F911F9159
:100760000F91FF90EF90DF90CF90BF90AF909F9050
:100770008F907F906F905F904F903F902F901F9041
:100780000F900FBE0F9008950F920FB6F8940F922E
:100790001F9211242F923F924F925F926F927F92FD
:1007A0008F929F92AF92BF92CF92DF92EF92FF9281
:1007B0000F931F932F933F934F935F936F937F9369
:1007C0008F939F93AF93BF93CF93DF93EF93FF9359
:1007D000A091FF06B09100070DB60D920EB60D92D6
:1007E0008FD12DD3A091FF06B0910007CD91CDBF41
:1007F000DD91DEBFFF91EF91DF91CF91BF91AF917E
:100800009F918F917F916F915F914F913F912F9128
:100810001F910F91FF90EF90DF90CF90BF90AF901E
:100820009F908F907F906F905F904F903F902F9010
:100830001F900F900FBE0F900895A6DF1895CF93CD
:10084000DF93EC01E091FF06F09100079383828330
:100850008091F7069091F806C817D90760F4609167
:10086000FF06709100078091FB069091FC066E5F79
:100870007F4F89DC16C06091FF0670910007809160
:10088000FD069091FE066E5F7F4F7DDC809100013A
:1008900090910101C817D90720F4D0930101C093AA
:1008A0000001DF91CF9108954F925F926F927F92F6
:1008B0008F929F92AF92BF92CF92DF92EF92FF9270
:1008C0000F931F93CF93DF934C013B015A012901F2
:1008D00081E290E0F9DBEC01009709F4D0C0C1148B
:1008E000D10409F0C9C0C501EFDB6C01988F8F8B73
:1008F000009719F4CE010DDCC2C0A50165EA70E0D5
:10090000C601FAD281E0A81AB1088F89988DA80E85
:10091000B91E48E050E0B301CE014996F4D218A2C6
:10092000102F043008F013E01E8B6E01E2E0CE0EB3
:10093000D11CC601FDDBCE010C96FADBD987C88736
:1009400084E090E0811B91099D878C87DB8BCA8BAB
:10095000A201B401C501F2DD99838883E114F10499
:1009600019F0F701D183C0830FB6F8940F928091EC
:10097000F9068F5F8093F9068091FF06909100073A
:10098000892BB9F5D0930007C093FF068091F90633
:10099000813009F03DC0E12CF12CC701880F991F6F
:1009A000880F991F880F991F8E0D9F1D8D5F984F7F
:1009B000B1DBFFEFEF1AFF0A84E0E816F10469F7F4
:1009C00087E297E0A7DB80E397E0A4DB89E397E089
:1009D000A1DB82E497E09EDB87E297E09093FE063E
:1009E0008093FD0680E397E09093FC068093FB06DE
:1009F0000FC08091F50681110BC0E091FF06F091C8
:100A000000078689081720F0D0930007C093FF06DF
:100A10008E8990910107981710F4809301079091A7
:100A200002079F5F909302079091F606981710F4C3
:100A30008093F60690E09C01220F331F220F331F94
:100A4000220F331F820F931FB6018D5F984F74DB07
:100A50000F900FBE8091F506882351F0E091FF06BC
:100A6000F09100078689801728F436DE81E008C0FF
:100A700081E006C081E004C0D88ECF8A3ECF8FEFE0
:100A8000DF91CF911F910F91FF90EF90DF90CF906A
:100A9000BF90AF909F908F907F906F905F904F909E
:100AA0000895AF92BF92CF92DF92EF92FF920F9391
:100AB000A12CB12CC12CD12CE12CF12C00E020E098
:100AC00030E045E550E06DE071E08AEC96E0ECDE68
:100AD000813041F4F8948093F5061092F806109254
:100AE000F706C0DD0F91FF90EF90DF90CF90BF90A1
:100AF000AF9008958091F4068F5F8093F406089577
:100B00000F931F93CF93DF938091F4068111AFC0B1
:100B10008091F7069091F80601969093F8068093DD
:100B2000F7068091F7069091F806892B99F5809148
:100B3000FD069091FE062091FB063091FC06309355
:100B4000FE062093FD069093FC068093FB068091A1
:100B5000F1068F5F8093F106E091FD06F091FE06AD
:100B60008081811107C08FEF9FEF909301018093E7
:100B7000000110C0E091FD06F091FE060580F681AF
:100B8000E02D0680F781E02D828193819093010111
:100B9000809300012091F7063091F80680910001C2
:100BA000909101012817390708F466C0E091FD060D
:100BB000F091FE068081882399F0E091FD06F09186
:100BC000FE060580F681E02DC681D7818A819B8152
:100BD0002091F7063091F80628173907F8F419C064
:100BE0008FEF9FEF909301018093000145C0E0914A
:100BF000FD06F091FE060580F681E02DC681D781C5
:100C00008A819B812091F7063091F80628173907D1
:100C100028F490930101809300012EC08E010E5F95
:100C20001F4FC801EBDA8C899D89892B19F0CE0101
:100C30000C96E4DA8E899091F606981710F480935A
:100C4000F60690E09C01220F331F220F331F220F64
:100C5000331F820F931FB8018D5F984F6DDAE091BB
:100C6000FD06F091FE0680818111C1CFB9CF809140
:100C7000F3068F5F8093F306DF91CF911F910F9161
:100C80000895AF92BF92CF92DF92EF92FF920F93AF
:100C90001F93CF93DF930FB6F8940F928091F406D1
:100CA00081508093F4068091F406811163C0809195
:100CB000F90681112DC061C0D601ED91FC91C6816C
:100CC000D781CE010C969ADA8E010E5F1F4FC801B4
:100CD00095DA8E899091F606981710F48093F606AF
:100CE00090E09C01220F331F220F331F220F331F6E
:100CF000820F931FB8018D5F984F1EDAE091FF06B7
:100D0000F09100079E898689981788F0BA2C0FC049
:100D1000B12C0F2EF9E3EF2EF7E0FF2EF02D0F2E62
:100D2000FEE3CF2EF7E0DF2EF02DAA24A394F701E7
:100D300080818111C1CF8091F306882379F0809161
:100D4000F306882391F0DCDE8091F30681508093D6
:100D5000F3068091F3068111F6CF07C0F1E0BF16CC
:100D600021F08091F206813039F41092F206B4DC61
:100D700081E003C080E001C080E00F900FBEDF91F2
:100D8000CF911F910F91FF90EF90DF90CF90BF9088
:100D9000AF9008950F2EF2E4EF2EF7E0FF2EF02D26
:100DA0000F2EF7E4CF2EF7E0DF2EF02DC3E0D7E0D3
:100DB0008091FA06882319F19DDED7011C9161DF2D
:100DC0001123E9F00FB6F8940F92D601ED91FC9142
:100DD00006811781C801029611DA8091F9068150C7
:100DE0008093F9068091FA0681508093FA060F905D
:100DF0000FBEF8018789908D8CD9C8018AD9888166
:100E00008230B0F269DCD4CFCF93DF93EC0100974E
:100E100091F070DE8091F7069091F806C80FD91F07
:100E20008091FF06909100070296E8D9CE0107DD78
:100E300028DF811101C050DCDF91CF9108958091AE
:100E4000F406811113C08091F60690E0FC01EE0FCC
:100E5000FF1FEE0FFF1FEE0FFF1F8E0F9F1FFC01E6
:100E6000ED5FF84F8081882329F01BC081E08093DB
:100E7000F20608958091F60681508093F6068091DF
:100E8000F60690E0FC01EE0FFF1FEE0FFF1FEE0FC6
:100E9000FF1F8E0F9F1FFC01ED5FF84F808188239D
:100EA00049F3E091F606F0E0CF01880F991F880F13
:100EB000991F880F991FE80FF91FED5FF84FA18167
:100EC000B28112960D90BC91A02DB283A183CF0167
:100ED0000396A817B90731F412968D919C91139738
:100EE000928381830180F281E02D868197819093A6
:100EF00000078093FF060895DC0101C06D93415007
:100F00005040E0F70895FB01DC014150504048F0AB
:100F100001900D920020C9F701C01D924150504030
:080F2000E0F70895F894FFCFFB
:100F2800FFFF4C65645365635461736B0049444C1F
:020F3800450072
:00000001FF
